{
  "contractName": "MileageEntry",
  "abi": [
    {
      "inputs": [
        {
          "internalType": "uint256",
          "name": "",
          "type": "uint256"
        }
      ],
      "name": "cars",
      "outputs": [
        {
          "internalType": "address",
          "name": "",
          "type": "address"
        }
      ],
      "stateMutability": "view",
      "type": "function",
      "constant": true
    },
    {
      "inputs": [
        {
          "internalType": "uint256",
          "name": "",
          "type": "uint256"
        }
      ],
      "name": "mileages",
      "outputs": [
        {
          "internalType": "uint256",
          "name": "",
          "type": "uint256"
        }
      ],
      "stateMutability": "view",
      "type": "function",
      "constant": true
    },
    {
      "inputs": [
        {
          "internalType": "uint256",
          "name": "mileage",
          "type": "uint256"
        },
        {
          "internalType": "uint256",
          "name": "carId",
          "type": "uint256"
        }
      ],
      "name": "enter",
      "outputs": [
        {
          "internalType": "uint256",
          "name": "",
          "type": "uint256"
        }
      ],
      "stateMutability": "nonpayable",
      "type": "function"
    },
    {
      "inputs": [],
      "name": "getCars",
      "outputs": [
        {
          "internalType": "address[5]",
          "name": "",
          "type": "address[5]"
        }
      ],
      "stateMutability": "view",
      "type": "function",
      "constant": true
    }
  ],
  "bytecode": "0x608060405234801561001057600080fd5b506104df806100206000396000f3fe608060405234801561001057600080fd5b506004361061004c5760003560e01c806317c392861461005157806323972aef1461006f578063550559021461009f578063f7746e36146100cf575b600080fd5b6100596100ff565b6040516100669190610363565b60405180910390f35b610089600480360381019061008491906103b9565b610180565b6040516100969190610408565b60405180910390f35b6100b960048036038101906100b49190610423565b610213565b6040516100c69190610408565b60405180910390f35b6100e960048036038101906100e49190610423565b61022e565b6040516100f6919061045f565b60405180910390f35b610107610264565b6000600580602002604051908101604052809291908260058015610176576020028201915b8160009054906101000a900473ffffffffffffffffffffffffffffffffffffffff1673ffffffffffffffffffffffffffffffffffffffff168152602001906001019080831161012c575b5050505050905090565b6000808210158015610193575060058211155b61019c57600080fd5b33600083600581106101b1576101b061047a565b5b0160006101000a81548173ffffffffffffffffffffffffffffffffffffffff021916908373ffffffffffffffffffffffffffffffffffffffff16021790555082600583600581106102055761020461047a565b5b018190555082905092915050565b6005816005811061022357600080fd5b016000915090505481565b6000816005811061023e57600080fd5b016000915054906101000a900473ffffffffffffffffffffffffffffffffffffffff1681565b6040518060a00160405280600590602082028036833780820191505090505090565b600060059050919050565b600081905092915050565b6000819050919050565b600073ffffffffffffffffffffffffffffffffffffffff82169050919050565b60006102d1826102a6565b9050919050565b6102e1816102c6565b82525050565b60006102f383836102d8565b60208301905092915050565b6000602082019050919050565b61031581610286565b61031f8184610291565b925061032a8261029c565b8060005b8381101561035b57815161034287826102e7565b965061034d836102ff565b92505060018101905061032e565b505050505050565b600060a082019050610378600083018461030c565b92915050565b600080fd5b6000819050919050565b61039681610383565b81146103a157600080fd5b50565b6000813590506103b38161038d565b92915050565b600080604083850312156103d0576103cf61037e565b5b60006103de858286016103a4565b92505060206103ef858286016103a4565b9150509250929050565b61040281610383565b82525050565b600060208201905061041d60008301846103f9565b92915050565b6000602082840312156104395761043861037e565b5b6000610447848285016103a4565b91505092915050565b610459816102c6565b82525050565b60006020820190506104746000830184610450565b92915050565b7f4e487b7100000000000000000000000000000000000000000000000000000000600052603260045260246000fdfea264697066735822122074627f1d5d8f8125df0bb10d64bba6949553f810832bd4745758b5b7b179016964736f6c63430008090033",
  "immutableReferences": {},
  "source": "// SPDX-License-Identifier: MIT\r\npragma solidity >=0.4.22 <0.9.0;\r\n\r\ncontract MileageEntry {\r\n  address[5] public cars;\r\n  uint[5] public mileages;\r\n\r\n  // Entering mileage\r\n  function enter(uint mileage, uint carId) public returns (uint) {\r\n    require(carId >= 0 && carId <= 5);\r\n\r\n    cars[carId] = msg.sender;\r\n    mileages[carId] = mileage;\r\n\r\n    return mileage;\r\n  }\r\n\r\n  // Retrieving cars\r\n  function getCars() public view returns (address[5] memory) {\r\n    return cars;\r\n  }\r\n\r\n}\r\n",
  "sourcePath": "C:\\Users\\uporabnik\\Repos\\VehicleChain\\contracts\\MileageEntry.sol",
  "compiler": {
    "name": "solc",
    "version": "0.8.9+commit.e5eed63a.Emscripten.clang"
  },
  "schemaVersion": "3.4.3",
  "updatedAt": "2021-11-10T14:20:27.612Z",
  "networkType": "ethereum",
  "devdoc": {
    "kind": "dev",
    "methods": {},
    "version": 1
  },
  "userdoc": {
    "kind": "user",
    "methods": {},
    "version": 1
  }
}